010000001000599000ABACATE KG                                        0000000000000000010000000000000000000000000000000000000000000000000000000000000000
011000002000399000ABACAXI UN                                        0000000000000000010000000000000000000000000000000000000000000000000000000000000000
010000003002499000ABACATE AVOCADO KG                                0000000000000000010000000000000000000000000000000000000000000000000000000000000000
010000004000249005ABOBORA JACARE KG                                 0000000000000000110000000000000000000000000000000000000000000000000000000000000000
010000005000799005ABOBORA JAPONESA KG                               0000000000000000110000000000000000000000000000000000000000000000000000000000000000
010000006000199005ABOBORA MARANHAO KG                               0000000000000000110000000000000000000000000000000000000000000000000000000000000000
010000007000399000ABOBORA MORANGA KG                                0000000000000000010000000000000000000000000000000000000000000000000000000000000000
010000008000399000ABOBORA PRINCESA KG                               0000000000000000010000000000000000000000000000000000000000000000000000000000000000
010000009000499000ABOBRINHA BABY KG                                 0000000000000000010000000000000000000000000000000000000000000000000000000000000000
010000010000399000ABOBRINHA ITALIANA KG                             0000000000000000010000000000000000000000000000000000000000000000000000000000000000
010000011000799000ABOBRINHA REDONDA KG                              0000000000000000010000000000000000000000000000000000000000000000000000000000000000
010000012000399000ACEROLA KG                                        0000000000000000010000000000000000000000000000000000000000000000000000000000000000
011000013000198000AGRIAO UN                                         0000000000000000010000000000000000000000000000000000000000000000000000000000000000
010000014000395000AIPIM KG                                          0000000000000000010000000000000000000000000000000000000000000000000000000000000000
011000015000249000AIPO UN                                           0000000000000000010000000000000000000000000000000000000000000000000000000000000000
011000016000149000ALECRIM UN                                        0000000000000000010000000000000000000000000000000000000000000000000000000000000000
011000017000198000ALFACE AMERICANA UN                               0000000000000000010000000000000000000000000000000000000000000000000000000000000000
011000018000149000ALFACE COMUM UN                                   0000000000000000010000000000000000000000000000000000000000000000000000000000000000
011000019000149000ALFACE CRESPA UN                                  0000000000000000010000000000000000000000000000000000000000000000000000000000000000
011000020000179000ALFACE COMUM UN HIDROPONI                         0000000000000000010000000000000000000000000000000000000000000000000000000000000000
011000021000159000ALFACE ROXO UN                                    0000000000000000010000000000000000000000000000000000000000000000000000000000000000
010000022001299000ALHO IMPORTADO LP KG                              0000000000000000010000000000000000000000000000000000000000000000000000000000000000
011000023000289000ALHO PORO UN                                      0000000000000000010000000000000000000000000000000000000000000000000000000000000000
011000024000139000ALMEIRAO BRANCO UN                                0000000000000000010000000000000000000000000000000000000000000000000000000000000000
011000025000139000ALMEIRAO ROXO UN                                  0000000000000000010000000000000000000000000000000000000000000000000000000000000000
010000027001399000AMEIXA NACIONAL KG                                0000000000000000010000000000000000000000000000000000000000000000000000000000000000
010000028001599015AMENDOIN KG                                       0000000000000000110000000000000000000000000000000000000000000000000000000000000000
010000031001799000ATEMOIA KG                                        0000000000000000010000000000000000000000000000000000000000000000000000000000000000
010000032000399000BANANA MACA KG                                    0000000000000000010000000000000000000000000000000000000000000000000000000000000000
010000033000299000BANANA NANICA KG                                  0000000000000000010000000000000000000000000000000000000000000000000000000000000000
010000034000398000BANANA OURO KG                                    0000000000000000010000000000000000000000000000000000000000000000000000000000000000
010000035000299000BANANA PRATA KG                                   0000000000000000010000000000000000000000000000000000000000000000000000000000000000
010000036000499000BANANA PRATA ORGANICA KG                          0000000000000000010000000000000000000000000000000000000000000000000000000000000000
010000037000599000BANANA TERRA KG                                   0000000000000000010000000000000000000000000000000000000000000000000000000000000000
010000038000599000BATATA ASTERIX KG                                 0000000000000000010000000000000000000000000000000000000000000000000000000000000000
010000039000998000BATATA BAROA KG                                   0000000000000000010000000000000000000000000000000000000000000000000000000000000000
010000040000299000BATATA DOCE KG                                    0000000000000000010000000000000000000000000000000000000000000000000000000000000000
010000041000399000BATATA INGLESA KG                                 0000000000000000010000000000000000000000000000000000000000000000000000000000000000
010000042000349000BATATA YACOM KG                                   0000000000000000010000000000000000000000000000000000000000000000000000000000000000
010000043000599000BERINJELA KG                                      0000000000000000010000000000000000000000000000000000000000000000000000000000000000
011000044000139000BERTALHA UN                                       0000000000000000010000000000000000000000000000000000000000000000000000000000000000
010000045000598000BETERRABA KG                                      0000000000000000010000000000000000000000000000000000000000000000000000000000000000
011000046000198000BROCOLIS UN                                       0000000000000000010000000000000000000000000000000000000000000000000000000000000000
011000047000399000BROCOLIS HIBRIDO UN                               0000000000000000010000000000000000000000000000000000000000000000000000000000000000
010000048001499000CACAU KG                                          0000000000000000010000000000000000000000000000000000000000000000000000000000000000
010000049001499000CAJA KG                                           0000000000000000010000000000000000000000000000000000000000000000000000000000000000
010000051000999000CAQUI FUIU KG                                     0000000000000000010000000000000000000000000000000000000000000000000000000000000000
010000052001499000CAQUI QUIOMBO KG                                  0000000000000000010000000000000000000000000000000000000000000000000000000000000000
010000053000799000CAQUI RAMA FORTE KG                               0000000000000000010000000000000000000000000000000000000000000000000000000000000000
010000054000699000CARA KG                                           0000000000000000010000000000000000000000000000000000000000000000000000000000000000
010000055000999000CARANBOLA KG                                      0000000000000000010000000000000000000000000000000000000000000000000000000000000000
010000056000499000CEBOLA KG                                         0000000000000000010000000000000000000000000000000000000000000000000000000000000000
010000057000999000CEBOLA ROXA KG                                    0000000000000000010000000000000000000000000000000000000000000000000000000000000000
011000058000129000CEBOLINHA UN                                      0000000000000000010000000000000000000000000000000000000000000000000000000000000000
010000059000999000CENOURA KG                                        0000000000000000010000000000000000000000000000000000000000000000000000000000000000
010000060004999000CEREJA KG                                         0000000000000000010000000000000000000000000000000000000000000000000000000000000000
011000061000149000CHICORIA UN                                       0000000000000000010000000000000000000000000000000000000000000000000000000000000000
010000062000449000CHUCHU KG                                         0000000000000000010000000000000000000000000000000000000000000000000000000000000000
010000063000799000COCO SECO KG                                      0000000000000000010000000000000000000000000000000000000000000000000000000000000000
011000065000129000COENTRO UN                                        0000000000000000010000000000000000000000000000000000000000000000000000000000000000
010000066000399005COUVE CHINESA KG                                  0000000000000000110000000000000000000000000000000000000000000000000000000000000000
010000067000899000COUVE FLOR KG                                     0000000000000000010000000000000000000000000000000000000000000000000000000000000000
011000068000159000COUVE FOLHA UN                                    0000000000000000010000000000000000000000000000000000000000000000000000000000000000
011000069000198000COUVE PICADA UN                                   0000000000000000010000000000000000000000000000000000000000000000000000000000000000
010000070004999000DAMASCO KG                                        0000000000000000010000000000000000000000000000000000000000000000000000000000000000
011000071000149000ESPINAFRE UN                                      0000000000000000010000000000000000000000000000000000000000000000000000000000000000
010000073002999000FIGO VERDE KG                                     0000000000000000010000000000000000000000000000000000000000000000000000000000000000
010000074000279000FRUTA PAO KG                                      0000000000000000010000000000000000000000000000000000000000000000000000000000000000
010000075000699000GENGIBRE KG                                       0000000000000000010000000000000000000000000000000000000000000000000000000000000000
010000077000399000GOIABA KG                                         0000000000000000010000000000000000000000000000000000000000000000000000000000000000
010000078000899000GRAVIOLA KG                                       0000000000000000010000000000000000000000000000000000000000000000000000000000000000
011000079000099000HORTELA UN                                        0000000000000000010000000000000000000000000000000000000000000000000000000000000000
010000080000399000INHAME CABECA KG                                  0000000000000000010000000000000000000000000000000000000000000000000000000000000000
010000081000495000INHAME DEDO KG                                    0000000000000000010000000000000000000000000000000000000000000000000000000000000000
010000082000599000JABUTICABA KG                                     0000000000000000010000000000000000000000000000000000000000000000000000000000000000
010000085000699000JILO BRANCO KG                                    0000000000000000010000000000000000000000000000000000000000000000000000000000000000
010000086000699000JILO VERDE KG                                     0000000000000000010000000000000000000000000000000000000000000000000000000000000000
010000087002499000KIWI IMPORTADO KG                                 0000000000000000010000000000000000000000000000000000000000000000000000000000000000
010000089000599000LARANJA LIMA KG                                   0000000000000000010000000000000000000000000000000000000000000000000000000000000000
010000090000299000LARANJA PERA KG                                   0000000000000000010000000000000000000000000000000000000000000000000000000000000000
010000091000549000LARANJA SELETA KG                                 0000000000000000010000000000000000000000000000000000000000000000000000000000000000
010000092001499000LICHIA KG                                         0000000000000000010000000000000000000000000000000000000000000000000000000000000000
010000093000999000LIMA PERSIA KG                                    0000000000000000010000000000000000000000000000000000000000000000000000000000000000
010000094000399000LIMAO GALEGO KG                                   0000000000000000010000000000000000000000000000000000000000000000000000000000000000
010000095001199000LIMAO SICILIANO KG                                0000000000000000010000000000000000000000000000000000000000000000000000000000000000
010000096000199000LIMAO THAITY KG                                   0000000000000000010000000000000000000000000000000000000000000000000000000000000000
010000097001299000MACA ARGENTINA KG                                 0000000000000000010000000000000000000000000000000000000000000000000000000000000000
010000099000799000MACA FUJI KG                                      0000000000000000010000000000000000000000000000000000000000000000000000000000000000
010000100000799000MACA GALA KG                                      0000000000000000010000000000000000000000000000000000000000000000000000000000000000
010000101001499000MACA GS KG                                        0000000000000000010000000000000000000000000000000000000000000000000000000000000000
010000102000899000MAMAO FORMOSA KG                                  0000000000000000010000000000000000000000000000000000000000000000000000000000000000
010000103000899000MAMAO HAVAI KG                                    0000000000000000010000000000000000000000000000000000000000000000000000000000000000
010000104000499000MANGA ESPADA KG                                   0000000000000000010000000000000000000000000000000000000000000000000000000000000000
010000105000498000MANGA PALMER KG                                   0000000000000000010000000000000000000000000000000000000000000000000000000000000000
010000106000449000MANGA ROSA KG                                     0000000000000000010000000000000000000000000000000000000000000000000000000000000000
010000107000599000MANGA TOMMY KG                                    0000000000000000010000000000000000000000000000000000000000000000000000000000000000
010000108001899000MANGOSTIN KG                                      0000000000000000010000000000000000000000000000000000000000000000000000000000000000
010000109000499000MANGUITA KG                                       0000000000000000010000000000000000000000000000000000000000000000000000000000000000
011000110000099000MANJERICAO UN                                     0000000000000000010000000000000000000000000000000000000000000000000000000000000000
010000111000499000MARACUJA KG                                       0000000000000000010000000000000000000000000000000000000000000000000000000000000000
010000112000899000MAXIXE KG                                         0000000000000000010000000000000000000000000000000000000000000000000000000000000000
010000113000549001MELANCIA BABY KG                                  0000000000000000110000000000000000000000000000000000000000000000000000000000000000
010000114000199005MELANCIA KG                                       0000000000000000110000000000000000000000000000000000000000000000000000000000000000
010000115000549001MELAO AMARELO KG                                  0000000000000000110000000000000000000000000000000000000000000000000000000000000000
010000116000798000MELAO CEPI KG                                     0000000000000000010000000000000000000000000000000000000000000000000000000000000000
010000117001199000MELAO ORANGE KG                                   0000000000000000010000000000000000000000000000000000000000000000000000000000000000
010000118000599000MELAO PS KG                                       0000000000000000010000000000000000000000000000000000000000000000000000000000000000
010000119000998000MELAO REI KG                                      0000000000000000010000000000000000000000000000000000000000000000000000000000000000
010000120000698000MEXERICA BERGAMOTA KG                             0000000000000000010000000000000000000000000000000000000000000000000000000000000000
010000121000549000MEXERICA COMUM KG                                 0000000000000000010000000000000000000000000000000000000000000000000000000000000000
011000122000599000MILHO VERDE C/03 UN                               0000000000000000010000000000000000000000000000000000000000000000000000000000000000
011000123000499000MORANGO UN                                        0000000000000000010000000000000000000000000000000000000000000000000000000000000000
011000124000149000MOSTARDA UN                                       0000000000000000010000000000000000000000000000000000000000000000000000000000000000
010000125000599000MORCOTE KG                                        0000000000000000010000000000000000000000000000000000000000000000000000000000000000
010000126000449000NABO KG                                           0000000000000000010000000000000000000000000000000000000000000000000000000000000000
010000127001199000NECTARINA IMPORTADA KG                            0000000000000000010000000000000000000000000000000000000000000000000000000000000000
011000129000429000OVOS BRANCOS MEIA DZ                              0000000000000000010000000000000000000000000000000000000000000000000000000000000000
011000130001599000OVOS BRANCOS 30UN                                 0000000000000000010000000000000000000000000000000000000000000000000000000000000000
011000131000799000OVOS BRANCOS DZ                                   0000000000000000010000000000000000000000000000000000000000000000000000000000000000
011000132001199000OVOS CAIPIRA DZ                                   0000000000000000010000000000000000000000000000000000000000000000000000000000000000
011000133000699000OVOS CODORNA 30UN                                 0000000000000000010000000000000000000000000000000000000000000000000000000000000000
011000134001299000OVOS CODORNA PCT CONSERVA                         0000000000000000010000000000000000000000000000000000000000000000000000000000000000
011000135002199000OVOS VERMELHOS 30UN                               0000000000000000010000000000000000000000000000000000000000000000000000000000000000
011000137000899000OVOS VERMELHOS DZ                                 0000000000000000010000000000000000000000000000000000000000000000000000000000000000
010000138000499000PEPINO JAPONES KG                                 0000000000000000010000000000000000000000000000000000000000000000000000000000000000
010000139000448000PEPINO KG                                         0000000000000000010000000000000000000000000000000000000000000000000000000000000000
010000140001399000PERA DANJU KG                                     0000000000000000010000000000000000000000000000000000000000000000000000000000000000
010000141001099000PERA PORTUGUESA KG                                0000000000000000010000000000000000000000000000000000000000000000000000000000000000
010000142001399000PERA PT KG                                        0000000000000000010000000000000000000000000000000000000000000000000000000000000000
010000144001399000PERA WILLIANS KG                                  0000000000000000010000000000000000000000000000000000000000000000000000000000000000
010000145001798000PESSEGO IMPORTADO KG                              0000000000000000010000000000000000000000000000000000000000000000000000000000000000
010000146002499030PIMENTA BIQUINHO KG                               0000000000000000110000000000000000000000000000000000000000000000000000000000000000
010000147002999000PIMENTA CAMBUCI KG                                0000000000000000010000000000000000000000000000000000000000000000000000000000000000
010000148002499000PIMENTA DE CHEIRO AMARELA                         0000000000000000010000000000000000000000000000000000000000000000000000000000000000
010000149002499000PIMENTA DEDO DE MOCA KG                           0000000000000000010000000000000000000000000000000000000000000000000000000000000000
010000150004899030PIMENTA MALAGUETA KG                              0000000000000000110000000000000000000000000000000000000000000000000000000000000000
010000151001499000PIMENTAO AMARELO KG                               0000000000000000010000000000000000000000000000000000000000000000000000000000000000
010000152000899000PIMENTAO VERDE KG                                 0000000000000000010000000000000000000000000000000000000000000000000000000000000000
010000153001499000PIMENTAO VERMELHO KG                              0000000000000000010000000000000000000000000000000000000000000000000000000000000000
010000154000999000PINHA KG                                          0000000000000000010000000000000000000000000000000000000000000000000000000000000000
010000155000999000PITAYA KG                                         0000000000000000010000000000000000000000000000000000000000000000000000000000000000
010000157000999003QUIABO KG                                         0000000000000000110000000000000000000000000000000000000000000000000000000000000000
011000158000149000RABANETE KG                                       0000000000000000010000000000000000000000000000000000000000000000000000000000000000
010000159000379000REPOLHO BRANCO KG                                 0000000000000000010000000000000000000000000000000000000000000000000000000000000000
010000160000599000REPOLHO ROXO KG                                   0000000000000000010000000000000000000000000000000000000000000000000000000000000000
010000161001899000ROMA KG                                           0000000000000000010000000000000000000000000000000000000000000000000000000000000000
011000162000139000RUCULA UN                                         0000000000000000010000000000000000000000000000000000000000000000000000000000000000
011000163000129000SALSA UN                                          0000000000000000010000000000000000000000000000000000000000000000000000000000000000
011000164000249000SALSAO UN                                         0000000000000000010000000000000000000000000000000000000000000000000000000000000000
011000166000119000SERRALHA UN                                       0000000000000000010000000000000000000000000000000000000000000000000000000000000000
011000167000179000TAIOBA UN                                         0000000000000000010000000000000000000000000000000000000000000000000000000000000000
010000168000599000TOMATAO KG                                        0000000000000000010000000000000000000000000000000000000000000000000000000000000000
010000169000899000TOMATE KG                                         0000000000000000010000000000000000000000000000000000000000000000000000000000000000
010000171000799010TOMATE CEREJA KG                                  0000000000000000110000000000000000000000000000000000000000000000000000000000000000
010000172000899000TOMATE ITALIANO KG                                0000000000000000010000000000000000000000000000000000000000000000000000000000000000
011000173000199000TOMILHO UN                                        0000000000000000010000000000000000000000000000000000000000000000000000000000000000
011000174000899000UVA BENITAKA 500G BDJ                             0000000000000000010000000000000000000000000000000000000000000000000000000000000000
011000175000899000UVA CRINSON 500G BDJ                              0000000000000000010000000000000000000000000000000000000000000000000000000000000000
011000177000899000UVA RFD GLOBE 500G BDJ                            0000000000000000010000000000000000000000000000000000000000000000000000000000000000
011000178000499000UVA ROSADA 500G BDJ                               0000000000000000010000000000000000000000000000000000000000000000000000000000000000
010000181001299000VAGEM BRANCA KG                                   0000000000000000010000000000000000000000000000000000000000000000000000000000000000
010000182001699000VAGEM VERDE KG                                    0000000000000000010000000000000000000000000000000000000000000000000000000000000000
010000183002999000ACEM KG CB EMB                                    0000000000000000010000000000000000000000000000000000000000000000000000000000000000
010000184004489000ALCATRA KG CB EMB                                 0000000000000000010000000000000000000000000000000000000000000000000000000000000000
010000185003698000CHA DENTRO KG CB EMB                              0000000000000000010000000000000000000000000000000000000000000000000000000000000000
010000186003499000CHA FORA KG CB EMB                                0000000000000000010000000000000000000000000000000000000000000000000000000000000000
010000187004999000CONTRA FILET KG CB EMB                            0000000000000000010000000000000000000000000000000000000000000000000000000000000000
010000188004299000FRALDINHA KG CB EMB                               0000000000000000010000000000000000000000000000000000000000000000000000000000000000
010000189003199000MUSCULO KG CB EMB                                 0000000000000000010000000000000000000000000000000000000000000000000000000000000000
010000190002598000PALETA KG CB EMB                                  0000000000000000010000000000000000000000000000000000000000000000000000000000000000
010000191003399000PEITO KG CB EMB                                   0000000000000000010000000000000000000000000000000000000000000000000000000000000000
010000192007999021PICANHA KG CB EMB                                 0000000000000000110000000000000000000000000000000000000000000000000000000000000000
010000193003699000CUPIM KG CB EMB                                   0000000000000000010000000000000000000000000000000000000000000000000000000000000000
010000194004899000ALCAT GRILL KG CB EMB                             0000000000000000010000000000000000000000000000000000000000000000000000000000000000
010000195006799000CONT F GRIL KG CB EMB                             0000000000000000010000000000000000000000000000000000000000000000000000000000000000
010000196005289000FRALD GRILL KG CB EMB                             0000000000000000010000000000000000000000000000000000000000000000000000000000000000
010000197010998000PICANHA GRIL KG CB EMB                            0000000000000000010000000000000000000000000000000000000000000000000000000000000000
010000198003999000CAPA CONTRA FILE KG EMB                           0000000000000000010000000000000000000000000000000000000000000000000000000000000000
010000199000100000PELANCA BOV KG                                    0000000000000000010000000000000000000000000000000000000000000000000000000000000000
010000200003098005ACEM KG CB FRESCA                                 0000000000000000110000000000000000000000000000000000000000000000000000000000000000
010000201004899005ALCATRA KG CB FRESCA                              0000000000000000110000000000000000000000000000000000000000000000000000000000000000
010000202002999005CAPA C FILET KG CB FRESCA                         0000000000000000110000000000000000000000000000000000000000000000000000000000000000
010000203003698005CHA DENTRO KG CB FRESCA                           0000000000000000110000000000000000000000000000000000000000000000000000000000000000
010000204003599005CHA FORA KG CB FRESCA                             0000000000000000110000000000000000000000000000000000000000000000000000000000000000
010000205004699005CONT FILET KG CB FRESCA                           0000000000000000110000000000000000000000000000000000000000000000000000000000000000
010000206001899005CORACAO KG CB FRESCA                              0000000000000000110000000000000000000000000000000000000000000000000000000000000000
010000207002499003COSTELA KG CB FRESCA                              0000000000000000110000000000000000000000000000000000000000000000000000000000000000
010000208003199003CUPIM KG CB FRESCA                                0000000000000000110000000000000000000000000000000000000000000000000000000000000000
010000209001999003FIGADO KG CB FRESCA                               0000000000000000110000000000000000000000000000000000000000000000000000000000000000
010000210006499003FILET MIGNON KG CB FRESCA                         0000000000000000110000000000000000000000000000000000000000000000000000000000000000
010000211004299003FRALDINHA KG CB FRESCA                            0000000000000000110000000000000000000000000000000000000000000000000000000000000000
010000212003499005LAGARTO KG CB FRESCA                              0000000000000000110000000000000000000000000000000000000000000000000000000000000000
010000213002499003LINGUA KG CB FRESCA                               0000000000000000110000000000000000000000000000000000000000000000000000000000000000
010000214001199010MOCOTO KG CB FRESCA                               0000000000000000110000000000000000000000000000000000000000000000000000000000000000
010000215003499005MUSCULO BOV TP1 KG                                0000000000000000110000000000000000000000000000000000000000000000000000000000000000
010000216003199003PALETA KG CB FRESCA                               0000000000000000110000000000000000000000000000000000000000000000000000000000000000
010000217003999005PATINHO KG CARNE BOV FRES                         0000000000000000110000000000000000000000000000000000000000000000000000000000000000
010000218003399003PEITO KG CB FRESCA                                0000000000000000110000000000000000000000000000000000000000000000000000000000000000
010000219008999005PICANHA KG CB FRESCA                              0000000000000000110000000000000000000000000000000000000000000000000000000000000000
010000220003399003RABADA KG CB FRESCA                               0000000000000000110000000000000000000000000000000000000000000000000000000000000000
010000221005299000MIOLO ALCATRA GRIL EMB                            0000000000000000010000000000000000000000000000000000000000000000000000000000000000
010000222007689000CONTRA FILE KG NOVILHA                            0000000000000000010000000000000000000000000000000000000000000000000000000000000000
010000223004299000PICANHA EMB KG FATIADA                            0000000000000000010000000000000000000000000000000000000000000000000000000000000000
010000224003999000PEITO EMB KG NOVILHA                              0000000000000000010000000000000000000000000000000000000000000000000000000000000000
010000225004990000SHORT BOV EMB KG BABY BLA                         0000000000000000010000000000000000000000000000000000000000000000000000000000000000
010000226003479000STEAK AMERIC KG NOVILHA                           0000000000000000010000000000000000000000000000000000000000000000000000000000000000
010000227001699005BARRIGUINHA KG CS                                 0000000000000000110000000000000000000000000000000000000000000000000000000000000000
010000228001398003CARRE KG CS                                       0000000000000000110000000000000000000000000000000000000000000000000000000000000000
010000229002199003COSTELA KG CS                                     0000000000000000110000000000000000000000000000000000000000000000000000000000000000
010000230000399003FIGADO KG CS                                      0000000000000000110000000000000000000000000000000000000000000000000000000000000000
010000231002799005FILE MIGNON SUINO                                 0000000000000000110000000000000000000000000000000000000000000000000000000000000000
010000232002399005LOMBO KG CS                                       0000000000000000110000000000000000000000000000000000000000000000000000000000000000
010000233001189003PALETA KG CS                                      0000000000000000110000000000000000000000000000000000000000000000000000000000000000
010000234000899003PE KG CS                                          0000000000000000110000000000000000000000000000000000000000000000000000000000000000
010000235001599003PERNIL C OSSO KG CS                               0000000000000000110000000000000000000000000000000000000000000000000000000000000000
010000236001599003PERNIL S OSSO KG CS                               0000000000000000110000000000000000000000000000000000000000000000000000000000000000
010000237003199003PICANHA KG CS                                     0000000000000000110000000000000000000000000000000000000000000000000000000000000000
010000238001399003TOUCINHO KG CS                                    0000000000000000110000000000000000000000000000000000000000000000000000000000000000
010000240002699003COPA LOMBO TEMP KG CS                             0000000000000000110000000000000000000000000000000000000000000000000000000000000000
010000241001899003FRALDINHA TEMP KG CS                              0000000000000000110000000000000000000000000000000000000000000000000000000000000000
010000242002098003PERNIL TEMP KG CS                                 0000000000000000110000000000000000000000000000000000000000000000000000000000000000
010000243003799000PICANHA TEMP KG CS                                0000000000000000010000000000000000000000000000000000000000000000000000000000000000
010000244004499015COST SUINA KG DEF                                 0000000000000000110000000000000000000000000000000000000000000000000000000000000000
010000245002799015ORELHA SUINA KG DEF                               0000000000000000110000000000000000000000000000000000000000000000000000000000000000
010000246002899012PE SUINA KG DEF                                   0000000000000000110000000000000000000000000000000000000000000000000000000000000000
010000247003599015RABO S KG DEF                                     0000000000000000110000000000000000000000000000000000000000000000000000000000000000
010000248001799005ASA FRANGO UNIAVES KG                             0000000000000000110000000000000000000000000000000000000000000000000000000000000000
010000249002999005CORACAO FRANGO KG                                 0000000000000000110000000000000000000000000000000000000000000000000000000000000000
010000250000899000COXA FGO DORSAL UNIAVE KG                         0000000000000000010000000000000000000000000000000000000000000000000000000000000000
010000251001399000COXA E SOBRECOXA KG                               0000000000000000010000000000000000000000000000000000000000000000000000000000000000
010000252001898000COXINHA ASA KG FGO UNIAVE                         0000000000000000010000000000000000000000000000000000000000000000000000000000000000
010000253000379000DORSO FGO KG UNIAVES                              0000000000000000010000000000000000000000000000000000000000000000000000000000000000
010000254001998005FILE PEITO FGO KG UNIAVES                         0000000000000000110000000000000000000000000000000000000000000000000000000000000000
010000255000649000FRANGO OI KG INTEIRO                              0000000000000000010000000000000000000000000000000000000000000000000000000000000000
010000257000449000GALINHA GALITTA KG                                0000000000000000010000000000000000000000000000000000000000000000000000000000000000
010000258000799000GALO NOROESTE KG                                  0000000000000000010000000000000000000000000000000000000000000000000000000000000000
010000259000799000GALO SOMAVE KG                                    0000000000000000010000000000000000000000000000000000000000000000000000000000000000
010000260002189005MEIO ASA FGO KG UNIAVES                           0000000000000000110000000000000000000000000000000000000000000000000000000000000000
010000261001399000MOELA FRANGO KG                                   0000000000000000010000000000000000000000000000000000000000000000000000000000000000
010000262000698005PE FRANGO KG UNIAVES                              0000000000000000110000000000000000000000000000000000000000000000000000000000000000
010000263001499000PEITO FRANGO KG UNIAVES                           0000000000000000010000000000000000000000000000000000000000000000000000000000000000
010000264000499000PESCOCO FGO KG UNIAVES                            0000000000000000010000000000000000000000000000000000000000000000000000000000000000
010000265000849000SAMBIQUIRA FGO KG UNIAVES                         0000000000000000010000000000000000000000000000000000000000000000000000000000000000
010000266001399000SOBRECOXA FGO KG UNIAVES                          0000000000000000010000000000000000000000000000000000000000000000000000000000000000
010000267001399004COXA SOBRE KG TEMP                                0000000000000000110000000000000000000000000000000000000000000000000000000000000000
010000268002190005COXINHA ASA TEMP                                  0000000000000000110000000000000000000000000000000000000000000000000000000000000000
010000269002999006BISC TOP KG CASADINHO                             0000000000000000110000000000000000000000000000000000000000000000000000000000000000
010000270002999006BISC TOP KG COCO                                  0000000000000000110000000000000000000000000000000000000000000000000000000000000000
010000271002999006BISC TOP KG TRADICONAL                            0000000000000000110000000000000000000000000000000000000000000000000000000000000000
010000272001899007BOLO TOP KG ABACAXI                               0000000000000000110000000000000000000000000000000000000000000000000000000000000000
010000273001899007BOLO TOP KG AIPIM                                 0000000000000000110000000000000000000000000000000000000000000000000000000000000000
010000274001899007BOLO TOP KG BANANA                                0000000000000000110000000000000000000000000000000000000000000000000000000000000000
010000275001899007BOLO TOP KG CENOURA                               0000000000000000110000000000000000000000000000000000000000000000000000000000000000
010000276002399007BOLO TOP KG CHOCOLATE                             0000000000000000110000000000000000000000000000000000000000000000000000000000000000
010000277002499007BOLO TOP KG COCO                                  0000000000000000110000000000000000000000000000000000000000000000000000000000000000
010000278002499007BOLO TOP KG COMUM                                 0000000000000000110000000000000000000000000000000000000000000000000000000000000000
010000279003499007BOLO TOP KG CONFEITADO                            0000000000000000110000000000000000000000000000000000000000000000000000000000000000
010000280003999007BOLO TOP KG CONF ESPECIAL                         0000000000000000110000000000000000000000000000000000000000000000000000000000000000
010000281001999007BOLO TOP KG FORMIGUEIRO                           0000000000000000110000000000000000000000000000000000000000000000000000000000000000
010000282001999007BOLO TOP KG GELEIA                                0000000000000000110000000000000000000000000000000000000000000000000000000000000000
010000283001699007BOLO TOP KG LADRAO                                0000000000000000110000000000000000000000000000000000000000000000000000000000000000
010000284001999007BOLO TOP KG LIDER                                 0000000000000000110000000000000000000000000000000000000000000000000000000000000000
010000285002799007BOLO TOP KG NAKED CAKE                            0000000000000000110000000000000000000000000000000000000000000000000000000000000000
010000286001699007BOLO TOP KG PRESTIGIO                             0000000000000000110000000000000000000000000000000000000000000000000000000000000000
010000287002199007BOLO TOP KG POTE                                  0000000000000000110000000000000000000000000000000000000000000000000000000000000000
010000288002199007BOLO TOP KG PUDIM                                 0000000000000000110000000000000000000000000000000000000000000000000000000000000000
010000289001599007BOLO TOP KG RICOTA                                0000000000000000110000000000000000000000000000000000000000000000000000000000000000
010000290001899007BOLO TOP KG SALGADO                               0000000000000000110000000000000000000000000000000000000000000000000000000000000000
011000291000799007BOLO TOP UN PEDACO                                0000000000000000110000000000000000000000000000000000000000000000000000000000000000
011000292001390007BOLO TOP UN COBERTURA                             0000000000000000110000000000000000000000000000000000000000000000000000000000000000
011000293000599007BOLO TOP UN PROMOCAO                              0000000000000000110000000000000000000000000000000000000000000000000000000000000000
010000295002499007BROA TOP KG MILHO                                 0000000000000000110000000000000000000000000000000000000000000000000000000000000000
010000296003489006BOMBOM TRAVESSA TOP KG                            0000000000000000110000000000000000000000000000000000000000000000000000000000000000
010000298001999006CAKE TOP KG SABORES                               0000000000000000110000000000000000000000000000000000000000000000000000000000000000
010000299002490007CUSCUS TOP KG                                     0000000000000000110000000000000000000000000000000000000000000000000000000000000000
011000300000399006DONUTS TOP UN SABORES                             0000000000000000110000000000000000000000000000000000000000000000000000000000000000
010000301004990005EMPADAO FRANGO TOP KG                             0000000000000000110000000000000000000000000000000000000000000000000000000000000000
010000302002299005HAMBURGUER TOP KG ASSADO                          0000000000000000110000000000000000000000000000000000000000000000000000000000000000
011000303000699005HAMBURGUER TOP UN                                 0000000000000000110000000000000000000000000000000000000000000000000000000000000000
011000304000499002LANCHE NATURAL TOP UN                             0000000000000000110000000000000000000000000000000000000000000000000000000000000000
011000305000499007MOUSSE TOP UN                                     0000000000000000110000000000000000000000000000000000000000000000000000000000000000
010000306002999015PALHA ITALIANA TOP KG                             0000000000000000110000000000000000000000000000000000000000000000000000000000000000
011000307000999030PANETTONE TOP UN FRUTAS                           0000000000000000110000000000000000000000000000000000000000000000000000000000000000
010000308002499005PAO DE QUEIJO TOP KG                              0000000000000000110000000000000000000000000000000000000000000000000000000000000000
011000309000549006PAO TOP FRANCES RECHEAD                           0000000000000000110000000000000000000000000000000000000000000000000000000000000000
010000310001699015PAO TOP AUSTRALIANO KG                            0000000000000000110000000000000000000000000000000000000000000000000000000000000000
010000311001699006PAO TOP KG CARACOL                                0000000000000000110000000000000000000000000000000000000000000000000000000000000000
010000312001699006PAO TOP KG CASEIRO                                0000000000000000110000000000000000000000000000000000000000000000000000000000000000
010000313001799006PAO TOP KG CEBOLA                                 0000000000000000110000000000000000000000000000000000000000000000000000000000000000
010000314001899006PAO TOP KG CHINES                                 0000000000000000110000000000000000000000000000000000000000000000000000000000000000
010000315001999006PAO TOP BATATA KG                                 0000000000000000110000000000000000000000000000000000000000000000000000000000000000
010000316002499004PAO TOP KG MEL                                    0000000000000000110000000000000000000000000000000000000000000000000000000000000000
010000317001699006PAO TOP KG DOCE                                   0000000000000000110000000000000000000000000000000000000000000000000000000000000000
010000318000799006PAO TOP KG DORMIDO                                0000000000000000110000000000000000000000000000000000000000000000000000000000000000
010000319001499006PAO TOP KG FAROFA                                 0000000000000000110000000000000000000000000000000000000000000000000000000000000000
010000320001899006PAO TOP KG FERRADURA                              0000000000000000110000000000000000000000000000000000000000000000000000000000000000
010000321001299006PAO TOP KG FRANCES                                0000000000000000110000000000000000000000000000000000000000000000000000000000000000
010000322001499007PAO TOP KG F INTEGRAL                             0000000000000000110000000000000000000000000000000000000000000000000000000000000000
010000323001399006PAO TOP KG HAMBURGER                              0000000000000000110000000000000000000000000000000000000000000000000000000000000000
010000324001499006PAO  TOP KG HOT DOG                               0000000000000000110000000000000000000000000000000000000000000000000000000000000000
010000325002199004PAO TOP KG RECHEADO                               0000000000000000110000000000000000000000000000000000000000000000000000000000000000
010000326002199006PAO TOP KG SEMI ITALIANO                          0000000000000000110000000000000000000000000000000000000000000000000000000000000000
010000327001599006PAO TOP KG TATU DOCE                              0000000000000000110000000000000000000000000000000000000000000000000000000000000000
010000328001999006PAO TOP KG TRANCA                                 0000000000000000110000000000000000000000000000000000000000000000000000000000000000
011000329000549006PAO TOP UN SOVADO                                 0000000000000000110000000000000000000000000000000000000000000000000000000000000000
011000330000499006PAPA TOP UN                                       0000000000000000110000000000000000000000000000000000000000000000000000000000000000
011000331000350000PASTEL TOP UN MASSA FIN                           0000000000000000010000000000000000000000000000000000000000000000000000000000000000
010000333002699006PAVE TOP KG                                       0000000000000000110000000000000000000000000000000000000000000000000000000000000000
010000334003399005PIZZA KG SABORES TOP                              0000000000000000110000000000000000000000000000000000000000000000000000000000000000
010000335002999006PUDIM TOP KG SABORES                              0000000000000000110000000000000000000000000000000000000000000000000000000000000000
010000336001999006QUIBE TOP KG ASSADO                               0000000000000000110000000000000000000000000000000000000000000000000000000000000000
010000337002990006ROCAMBOLE TOP KG SABORES                          0000000000000000110000000000000000000000000000000000000000000000000000000000000000
010000338002690006SALGADINHO KG TOP                                 0000000000000000110000000000000000000000000000000000000000000000000000000000000000
011000339000600006SALGADO FRITO TOP UN                              0000000000000000110000000000000000000000000000000000000000000000000000000000000000
011000340000499003SANDUICHE TOP UN NATURAL                          0000000000000000110000000000000000000000000000000000000000000000000000000000000000
011000341000499006SONHO TOP UN                                      0000000000000000110000000000000000000000000000000000000000000000000000000000000000
010000342002999006TORTA TOP KG HOLANDESA                            0000000000000000110000000000000000000000000000000000000000000000000000000000000000
010000343002990006TORTA TOP KG SALGADA                              0000000000000000110000000000000000000000000000000000000000000000000000000000000000
010000344005990006TORTA TOP KG  BACALHAU                            0000000000000000110000000000000000000000000000000000000000000000000000000000000000
010000345006999000SALAME IT AURORA KG                               0000000000000000010000000000000000000000000000000000000000000000000000000000000000
010000346007999000SALAME IT PAMPLONA KG                             0000000000000000010000000000000000000000000000000000000000000000000000000000000000
010000347010990000SALAME IT SADIA KG                                0000000000000000010000000000000000000000000000000000000000000000000000000000000000
010000348008099000SALAME IT SULITA KG                               0000000000000000010000000000000000000000000000000000000000000000000000000000000000
010000349001699000HOT DOG COFRIL KG                                 0000000000000000010000000000000000000000000000000000000000000000000000000000000000
010000350001999007HOT DOG COFRIL KG FRANGO                          0000000000000000110000000000000000000000000000000000000000000000000000000000000000
010000351000899000HOT DOG FRIATO KG                                 0000000000000000010000000000000000000000000000000000000000000000000000000000000000
010000352001099000HOT DOG FRIALL KG                                 0000000000000000010000000000000000000000000000000000000000000000000000000000000000
010000353001199005HOT DOG NOBRE KG                                  0000000000000000110000000000000000000000000000000000000000000000000000000000000000
010000354000849015HOT DOG REZENDE KG                                0000000000000000110000000000000000000000000000000000000000000000000000000000000000
010000355001749005HOT DOG PERDIGAO KG                               0000000000000000110000000000000000000000000000000000000000000000000000000000000000
010000356001299005HOT DOG PIF PAF KG                                0000000000000000110000000000000000000000000000000000000000000000000000000000000000
010000357001099000HOT DOG WILSON KG                                 0000000000000000010000000000000000000000000000000000000000000000000000000000000000
010000358000999000HOT DOG XIKEN KG FRANGO                           0000000000000000010000000000000000000000000000000000000000000000000000000000000000
010000359002899015LING COFRIL KG FGO DEF FI                         0000000000000000110000000000000000000000000000000000000000000000000000000000000000
010000361001799005CALAB DEF GROSSA KG COFRI                         0000000000000000110000000000000000000000000000000000000000000000000000000000000000
010000362003799015LING COFRIL KG PAIO                               0000000000000000110000000000000000000000000000000000000000000000000000000000000000
010000363001999005LING COFRIL KG PERNIL                             0000000000000000110000000000000000000000000000000000000000000000000000000000000000
010000364002499007LING COFRIL KG FINA FRESC                         0000000000000000110000000000000000000000000000000000000000000000000000000000000000
010000365002699005LING COFRIL KG FGO FINA F                         0000000000000000110000000000000000000000000000000000000000000000000000000000000000
010000366002799000LING COFRIL KG FGO APIMEN                         0000000000000000010000000000000000000000000000000000000000000000000000000000000000
010000367002699000LING COFRIL KG P APIMENTA                         0000000000000000010000000000000000000000000000000000000000000000000000000000000000
010000368001998007CALAB DEF GROSSA KG FRISA                         0000000000000000110000000000000000000000000000000000000000000000000000000000000000
010000369001998007CALAB DEF FINNA KG FRISA                          0000000000000000110000000000000000000000000000000000000000000000000000000000000000
010000370001699005LING FRISA KG FRANGO                              0000000000000000110000000000000000000000000000000000000000000000000000000000000000
010000371001829000LING FRISA KG PERNIL                              0000000000000000010000000000000000000000000000000000000000000000000000000000000000
010000372002399015LING FRISA KG PAIO                                0000000000000000110000000000000000000000000000000000000000000000000000000000000000
010000373001249003LING FAVORITA KG                                  0000000000000000110000000000000000000000000000000000000000000000000000000000000000
010000374001899000LING SABORATTA KG PERNIL                          0000000000000000010000000000000000000000000000000000000000000000000000000000000000
010000375001999007CALAB DEF GROSSA KG PERDI                         0000000000000000110000000000000000000000000000000000000000000000000000000000000000
010000376002799000CALAB DEF FINA KG PERDIGA                         0000000000000000010000000000000000000000000000000000000000000000000000000000000000
010000377001699000LING PERDIGAO KG TOSCANA                          0000000000000000010000000000000000000000000000000000000000000000000000000000000000
010000378002799007CALAB DEF GROSSA KG SADIA                         0000000000000000110000000000000000000000000000000000000000000000000000000000000000
010000379002799015CALAB DEF FINNA KG SADIA                          0000000000000000110000000000000000000000000000000000000000000000000000000000000000
010000380001690000LING SADIA KG FRANGO                              0000000000000000010000000000000000000000000000000000000000000000000000000000000000
010000381001349000LING SADIA KG SUINA                               0000000000000000010000000000000000000000000000000000000000000000000000000000000000
010000382001499000LING SAUDALI KG SUINA                             0000000000000000010000000000000000000000000000000000000000000000000000000000000000
010000383001999007CALAB DEF GROSSA KG SEARA                         0000000000000000110000000000000000000000000000000000000000000000000000000000000000
010000384001999007LING MISTA DEF FINA SEARA                         0000000000000000110000000000000000000000000000000000000000000000000000000000000000
010000385001799003LING SEARA KG FRANGO                              0000000000000000110000000000000000000000000000000000000000000000000000000000000000
010000386001799005LING SEARA KG PERNIL                              0000000000000000110000000000000000000000000000000000000000000000000000000000000000
010000387001499000LING SULITA KG SUINA                              0000000000000000010000000000000000000000000000000000000000000000000000000000000000
010000388002699007LING XIKEN KG CALAB DEF F                         0000000000000000110000000000000000000000000000000000000000000000000000000000000000
010000389001399000LING XIKEN KG TOSCANA                             0000000000000000010000000000000000000000000000000000000000000000000000000000000000
010000390001999003MORT COFRIL KG BOLOGNA                            0000000000000000110000000000000000000000000000000000000000000000000000000000000000
010000391002499003MORT COFRIL KG BEXIGA FAT                         0000000000000000110000000000000000000000000000000000000000000000000000000000000000
010000392001590003MORT COFRIL KG DEF.PECA                           0000000000000000110000000000000000000000000000000000000000000000000000000000000000
010000393001499000MORT COFRIL KG FRANGO                             0000000000000000010000000000000000000000000000000000000000000000000000000000000000
010000394001499000MORT COFRIL KG SABOROSA                           0000000000000000010000000000000000000000000000000000000000000000000000000000000000
010000395002529003MORT PERDIGAO KG BOLOGNEL                         0000000000000000110000000000000000000000000000000000000000000000000000000000000000
010000396002241003MORT PERDIGAO DEF OURO PC                         0000000000000000110000000000000000000000000000000000000000000000000000000000000000
010000397001199015MORT PERD KG TRADICIONAL                          0000000000000000110000000000000000000000000000000000000000000000000000000000000000
010000398002199003MORT PIFPAF KG BONELLA                            0000000000000000110000000000000000000000000000000000000000000000000000000000000000
010000399000849003MORT PIFPAF KG FRANGO                             0000000000000000110000000000000000000000000000000000000000000000000000000000000000
010000400000649003MORT PIFPAF KG TRAD                               0000000000000000110000000000000000000000000000000000000000000000000000000000000000
010000401002798003MORT SADIA KG DEF PECA                            0000000000000000110000000000000000000000000000000000000000000000000000000000000000
010000402000799015MORT SEARA KG CONF                                0000000000000000110000000000000000000000000000000000000000000000000000000000000000
010000403002699003MORT SEARA KG DEF                                 0000000000000000110000000000000000000000000000000000000000000000000000000000000000
010000404002399003APRES AURORA KG PECA                              0000000000000000110000000000000000000000000000000000000000000000000000000000000000
010000405002499003APRES COFRIL KG                                   0000000000000000110000000000000000000000000000000000000000000000000000000000000000
010000406001599003APRES FRISA KG PECA                               0000000000000000110000000000000000000000000000000000000000000000000000000000000000
010000407001899003APRES PIF PAF KG PECA                             0000000000000000110000000000000000000000000000000000000000000000000000000000000000
010000408002999003APRES PERDIGAO KG                                 0000000000000000110000000000000000000000000000000000000000000000000000000000000000
010000409003399003APRES SADIA KG                                    0000000000000000110000000000000000000000000000000000000000000000000000000000000000
010000410002499003APRES SEARA KG                                    0000000000000000110000000000000000000000000000000000000000000000000000000000000000
010000411001499003CHESTER FRISA KG                                  0000000000000000110000000000000000000000000000000000000000000000000000000000000000
010000412002199003CHESTER PERDIGAO KG                               0000000000000000110000000000000000000000000000000000000000000000000000000000000000
010000413001699003CHESTER SADIA KG                                  0000000000000000110000000000000000000000000000000000000000000000000000000000000000
010000414002799003PRESUNTO AURORA KG                                0000000000000000110000000000000000000000000000000000000000000000000000000000000000
010000415002499003PRESUNTO COFRIL KG COZIDO                         0000000000000000110000000000000000000000000000000000000000000000000000000000000000
010000416002998003PRESUNTO PERDIGAO KG                              0000000000000000110000000000000000000000000000000000000000000000000000000000000000
010000417002199003PRESUNTO PIF PAF  KG                              0000000000000000110000000000000000000000000000000000000000000000000000000000000000
010000418003499003PRESUNTO SADIA KG                                 0000000000000000110000000000000000000000000000000000000000000000000000000000000000
010000419002999003PRESUNTO SEARA KG MAGRO                           0000000000000000110000000000000000000000000000000000000000000000000000000000000000
010000420005499003CHEDDAR KG FATIADO                                0000000000000000110000000000000000000000000000000000000000000000000000000000000000
010000421006999000COALHO VENEZA KG ESPETO                           0000000000000000010000000000000000000000000000000000000000000000000000000000000000
010000422004999000COALHO DAMARE KG                                  0000000000000000010000000000000000000000000000000000000000000000000000000000000000
010000423007999000GORGONZOLA VENEZA KG                              0000000000000000010000000000000000000000000000000000000000000000000000000000000000
010000424004999000MINAS PADR DAMARE KG                              0000000000000000010000000000000000000000000000000000000000000000000000000000000000
010000425003799000MINAS PAD GIESTAS KG                              0000000000000000010000000000000000000000000000000000000000000000000000000000000000
010000426007799000MINAS PAD LACFREE KG ZERO                         0000000000000000010000000000000000000000000000000000000000000000000000000000000000
010000427004599000MINAS PAD PUREZA KG                               0000000000000000010000000000000000000000000000000000000000000000000000000000000000
010000428004999000MINAS PAD SELITA KG                               0000000000000000010000000000000000000000000000000000000000000000000000000000000000
010000429005299000MINAS PAD VENEZA KG                               0000000000000000010000000000000000000000000000000000000000000000000000000000000000
010000430005999000MINAS PAD VENEZA KG 0 LAC                         0000000000000000010000000000000000000000000000000000000000000000000000000000000000
010000431005299000MUSSARELA V KG OREGANO                            0000000000000000010000000000000000000000000000000000000000000000000000000000000000
010000432005389000 MUSSARELA V KG PIMENTA C                         0000000000000000010000000000000000000000000000000000000000000000000000000000000000
010000433002699000PRATO DAMARE KG                                   0000000000000000010000000000000000000000000000000000000000000000000000000000000000
010000434003948003MUSSARELA VENEZA KG FAT                           0000000000000000110000000000000000000000000000000000000000000000000000000000000000
010000435003589003MUSSARELA VENEZA KG PED                           0000000000000000110000000000000000000000000000000000000000000000000000000000000000
010000436001699000PALMITO PUPUNHA KG                                0000000000000000010000000000000000000000000000000000000000000000000000000000000000
010000437002699015BACON MANTA COFRIL KG                             0000000000000000110000000000000000000000000000000000000000000000000000000000000000
010000438003389000BACON PERNIL KG                                   0000000000000000010000000000000000000000000000000000000000000000000000000000000000
010000439004067010BACON COFRIL KG EMBALADO                          0000000000000000110000000000000000000000000000000000000000000000000000000000000000
010000440002499007LINGUICA CASEIRA KG                               0000000000000000110000000000000000000000000000000000000000000000000000000000000000
010000441000300000CARNE BOV FRESCA KG TRASE                         0000000000000000010000000000000000000000000000000000000000000000000000000000000000
010000443001549000PERDA KG CS                                       0000000000000000010000000000000000000000000000000000000000000000000000000000000000
011000445000549010PAO TOP UN FORMA                                  0000000000000000110000000000000000000000000000000000000000000000000000000000000000
011000446000149000CEBOLINHA VERDE UN KALKE                          0000000000000000010000000000000000000000000000000000000000000000000000000000000000
011000447000149000COUVE FOLHA UN KALKE                              0000000000000000010000000000000000000000000000000000000000000000000000000000000000
011000448000159000TAIOBA UN KALKE                                   0000000000000000010000000000000000000000000000000000000000000000000000000000000000
010000449000659000CEBOLA EXTRA MARIANO PCT                          0000000000000000010000000000000000000000000000000000000000000000000000000000000000
010000452000399000JILO VERDE MARIANO 300GR                          0000000000000000010000000000000000000000000000000000000000000000000000000000000000
011000453000899000MILHO VERDE C/05 UN                               0000000000000000010000000000000000000000000000000000000000000000000000000000000000
010000454005279003PEITO PERU SADIA KG DEF F                         0000000000000000110000000000000000000000000000000000000000000000000000000000000000
010000456002699000PAPADA COFRIL KG DEF                              0000000000000000010000000000000000000000000000000000000000000000000000000000000000
010000462001449015FARINHA ROSCA TOP KG                              0000000000000000110000000000000000000000000000000000000000000000000000000000000000
010000463001699015TORRADA TOP KG                                    0000000000000000110000000000000000000000000000000000000000000000000000000000000000
010000464001489000LINGUICA KIFRANGO KG                              0000000000000000010000000000000000000000000000000000000000000000000000000000000000
011000465000699000TOMATE CEREJA 300G                                0000000000000000010000000000000000000000000000000000000000000000000000000000000000
010000466003849000LOMBO CANADENSE COFRIL KG                         0000000000000000010000000000000000000000000000000000000000000000000000000000000000
010000467002799000LOMBO SUINO SADIA KG FATI                         0000000000000000010000000000000000000000000000000000000000000000000000000000000000
010000469003699000CARNE BOV EMB KG COXAO DU                         0000000000000000010000000000000000000000000000000000000000000000000000000000000000
010000470003699000ASSADO TIRAS NOV KG                               0000000000000000010000000000000000000000000000000000000000000000000000000000000000
010000471003999007CARNE DE SOL KG                                   0000000000000000110000000000000000000000000000000000000000000000000000000000000000
010000472003899007BUCHO BOV KG                                      0000000000000000110000000000000000000000000000000000000000000000000000000000000000
010000473007999000PROVOLONE VENEZA KG                               0000000000000000010000000000000000000000000000000000000000000000000000000000000000
010000474002179000RICOTA VENEZA KG                                  0000000000000000010000000000000000000000000000000000000000000000000000000000000000
010000475001849000RICOTA PUREZA KG                                  0000000000000000010000000000000000000000000000000000000000000000000000000000000000
010000476007499000PARMESAO SELITA KG FAT                            0000000000000000010000000000000000000000000000000000000000000000000000000000000000
010000477002999003PEITO FG SADIA KG COZ FAT                         0000000000000000110000000000000000000000000000000000000000000000000000000000000000
010000478001690005BOL CHUVA TOP KG                                  0000000000000000110000000000000000000000000000000000000000000000000000000000000000
010000479001690007MENTIRA TOP KG                                    0000000000000000110000000000000000000000000000000000000000000000000000000000000000
010000480001449015SARDINHA SALGADA KG                               0000000000000000110000000000000000000000000000000000000000000000000000000000000000
010000481004199015CARNE SECA FRISA KG                               0000000000000000110000000000000000000000000000000000000000000000000000000000000000
010000482001899000CODEGUIM COFRIL KG                                0000000000000000010000000000000000000000000000000000000000000000000000000000000000
010000483001599000CHOURICO COFRIL KG                                0000000000000000010000000000000000000000000000000000000000000000000000000000000000
010000484000899015JOELHO SUINO KG                                   0000000000000000110000000000000000000000000000000000000000000000000000000000000000
010000485000999015MASCARA SUINA KG SALGADA                          0000000000000000110000000000000000000000000000000000000000000000000000000000000000
010000486002999003PEITO FG FRISA KG DEF FAT                         0000000000000000110000000000000000000000000000000000000000000000000000000000000000
010000487002999005COSTELA GAUCHA KG                                 0000000000000000110000000000000000000000000000000000000000000000000000000000000000
010000488003499003QUEIJO MUS DI FRATELLI KG                         0000000000000000110000000000000000000000000000000000000000000000000000000000000000
010000489003599003QUEIJA MUS DI FRATELLI KF                         0000000000000000110000000000000000000000000000000000000000000000000000000000000000
010000490002699015BACON PALETA KG                                   0000000000000000110000000000000000000000000000000000000000000000000000000000000000
010000491003499003QUEIJO MUSSARELA PUREZA K                         0000000000000000110000000000000000000000000000000000000000000000000000000000000000
010000492003599003QUEIJO MUSSARELA PUREZA K                         0000000000000000110000000000000000000000000000000000000000000000000000000000000000
010000493002390004SALGADO TOP KG ASSADO                             0000000000000000110000000000000000000000000000000000000000000000000000000000000000
010000494004199030MERLUZA SALGADA KG                                0000000000000000110000000000000000000000000000000000000000000000000000000000000000
010000495003999003QUEIJO MUSSARELA PUREZA K                         0000000000000000110000000000000000000000000000000000000000000000000000000000000000
010000496008499000QUEIJO PROVOLONE CRIOULO                          0000000000000000010000000000000000000000000000000000000000000000000000000000000000
010000498001699000RICOTA BIMBO KG                                   0000000000000000010000000000000000000000000000000000000000000000000000000000000000
010000499002199007BOLO TOP KG BRIGADEIRO                            0000000000000000110000000000000000000000000000000000000000000000000000000000000000
010000500001998060UVA PASSA KG ESCURA                               0000000000000000110000000000000000000000000000000000000000000000000000000000000000
010000501008999000QUEIJO PARMESAO VALE DA C                         0000000000000000010000000000000000000000000000000000000000000000000000000000000000
010000502001599000FRANGO INTEIRO UNIAVES KG                         0000000000000000010000000000000000000000000000000000000000000000000000000000000000
010000503001699030TOUCINHO SALGADO KG                               0000000000000000110000000000000000000000000000000000000000000000000000000000000000
010000504001990006CHIPA MULTI KG                                    0000000000000000110000000000000000000000000000000000000000000000000000000000000000
010000505002999002FOCACCIA TOP KG SABORES                           0000000000000000110000000000000000000000000000000000000000000000000000000000000000
010000506002499006ROSCA TOP KG FRITA                                0000000000000000110000000000000000000000000000000000000000000000000000000000000000
010000507002699006SONHO TOP KG                                      0000000000000000110000000000000000000000000000000000000000000000000000000000000000
010000508002599006PAO TOP KG CEARENSE                               0000000000000000110000000000000000000000000000000000000000000000000000000000000000
010000509002199010PAO TOP KG ESPECIAL                               0000000000000000110000000000000000000000000000000000000000000000000000000000000000
011000510000849006PAO TOP UN ESPECIAL                               0000000000000000110000000000000000000000000000000000000000000000000000000000000000
010000511002699007CALAB COFRIL KG DEF GR EM                         0000000000000000110000000000000000000000000000000000000000000000000000000000000000
010000512002999000QUEIJO MINAS PADRAO PORTO                         0000000000000000010000000000000000000000000000000000000000000000000000000000000000
010000514002099000PONTA AGULHA BOV KG                               0000000000000000010000000000000000000000000000000000000000000000000000000000000000
010000515003498003QUEIJO MUSSARELA MAISVIDA                         0000000000000000110000000000000000000000000000000000000000000000000000000000000000
010000516003848003QUEIJO MUSSARELA MAISVIDA                         0000000000000000110000000000000000000000000000000000000000000000000000000000000000
011000517000199000ALFACE COMUM UN ORGANICO                          0000000000000000010000000000000000000000000000000000000000000000000000000000000000
011000518000199000COUVE FOLHA UN ORGANICO                           0000000000000000010000000000000000000000000000000000000000000000000000000000000000
010000519007395000CONTRA FILE CHORIZO KG                            0000000000000000010000000000000000000000000000000000000000000000000000000000000000
010000520002289000PESC PERU PERDIGAO KG                             0000000000000000010000000000000000000000000000000000000000000000000000000000000000
010000521002199015KIT FEIJOADA DA CASA KG                           0000000000000000110000000000000000000000000000000000000000000000000000000000000000
010000522002999005BISC POLVILHO TOP KG                              0000000000000000110000000000000000000000000000000000000000000000000000000000000000
011000523000399006PAO TOP UN CARNE                                  0000000000000000110000000000000000000000000000000000000000000000000000000000000000
010000524001999007BOLO TOP KG GOIABADA                              0000000000000000110000000000000000000000000000000000000000000000000000000000000000
010000525003999000PICANHA ISCA KG EMB                               0000000000000000010000000000000000000000000000000000000000000000000000000000000000
010000526002499000CHESTER INTEIRO PERDIGAO                          0000000000000000010000000000000000000000000000000000000000000000000000000000000000
010000527003499000PERU INTEIRO SADIA KG TEM                         0000000000000000010000000000000000000000000000000000000000000000000000000000000000
010000530004168003QUEIJO MUSSARELA DAVACA K                         0000000000000000110000000000000000000000000000000000000000000000000000000000000000
010000531003789003QUEIJO MUSSARELA DAVACA K                         0000000000000000110000000000000000000000000000000000000000000000000000000000000000
010000532000999015PE SALGADO KG                                     0000000000000000110000000000000000000000000000000000000000000000000000000000000000
010000533000899015SUA SALGADO KG                                    0000000000000000110000000000000000000000000000000000000000000000000000000000000000
010000534002490003KAFTA KG BV                                       0000000000000000110000000000000000000000000000000000000000000000000000000000000000
010000536005898000MINAS PAD SUNNY DAY KG                            0000000000000000010000000000000000000000000000000000000000000000000000000000000000
010000537001998007PAO TOP KG ALHO                                   0000000000000000110000000000000000000000000000000000000000000000000000000000000000
010000538001899007ASA TEMP KG                                       0000000000000000110000000000000000000000000000000000000000000000000000000000000000
010000539002399005FILE COXA TEMP KG                                 0000000000000000110000000000000000000000000000000000000000000000000000000000000000
010000540002599007CX SOBCX KG REC TRAD                              0000000000000000110000000000000000000000000000000000000000000000000000000000000000
010000541001199000NECTARINA NACIONAL KG                             0000000000000000010000000000000000000000000000000000000000000000000000000000000000
010000542002999000LOMBO KG RECH TEMP                                0000000000000000010000000000000000000000000000000000000000000000000000000000000000
010000543001399000CAFE PONTOES KG                                   0000000000000000010000000000000000000000000000000000000000000000000000000000000000
010000544001599007FRANGO INT KG RECH TEMP                           0000000000000000110000000000000000000000000000000000000000000000000000000000000000
010000545003199000ROCAMBOLE BOV KG RECH                             0000000000000000010000000000000000000000000000000000000000000000000000000000000000
010000546001299000FRANGO ESP XIKEN KG TEMPE                         0000000000000000010000000000000000000000000000000000000000000000000000000000000000
010000547004499000REQU SELITA KG TABLETE                            0000000000000000010000000000000000000000000000000000000000000000000000000000000000
010000548002199000PERNIL SADIA KG ESPECIAL                          0000000000000000010000000000000000000000000000000000000000000000000000000000000000
010000549001999007BOLO TOP KG LIMAO                                 0000000000000000110000000000000000000000000000000000000000000000000000000000000000
010000550005499000UVA PASSA KG CLARA                                0000000000000000010000000000000000000000000000000000000000000000000000000000000000
010000551000999000FRANGO ESPECIAL UNIAVES K                         0000000000000000010000000000000000000000000000000000000000000000000000000000000000
010000552005599000QUEIJO CAB BIMBO KG                               0000000000000000010000000000000000000000000000000000000000000000000000000000000000
010000553004999000REQUEI SUNNY DAY KG BARRA                         0000000000000000010000000000000000000000000000000000000000000000000000000000000000
010000554003299020PANETTONE TRUFADO KG TOP                          0000000000000000110000000000000000000000000000000000000000000000000000000000000000
010000555001999000PANETTONE CHOC KG MULTI                           0000000000000000010000000000000000000000000000000000000000000000000000000000000000
011000556000999030PANETTONE TOP UN CHOC                             0000000000000000110000000000000000000000000000000000000000000000000000000000000000
010000557000999004UVA ROSADA KG                                     0000000000000000110000000000000000000000000000000000000000000000000000000000000000
011000558000450006CANUDO FRITO TOP UN                               0000000000000000110000000000000000000000000000000000000000000000000000000000000000
010000559008999000PICANHA GRILL CONG KG CB                          0000000000000000010000000000000000000000000000000000000000000000000000000000000000
010000560002798030PEROA CATIPAN KG                                  0000000000000000110000000000000000000000000000000000000000000000000000000000000000
010000561001699000FRANGO SADIA KG SUPREME T                         0000000000000000010000000000000000000000000000000000000000000000000000000000000000
010000562002799007LING FRANGO COFRIL KG DEF                         0000000000000000110000000000000000000000000000000000000000000000000000000000000000
010000563002999015LING CALABRESA COFRIL KG                          0000000000000000110000000000000000000000000000000000000000000000000000000000000000
010000565004399000CARNE BOV EMB KG CONTRA F                         0000000000000000010000000000000000000000000000000000000000000000000000000000000000
010000566002499015COSTELA SALGADO KG                                0000000000000000110000000000000000000000000000000000000000000000000000000000000000
010000567001089000LING MISTA SABORATTA KG                           0000000000000000010000000000000000000000000000000000000000000000000000000000000000
010000568004399000PEITO GRILL KG CB EMB                             0000000000000000010000000000000000000000000000000000000000000000000000000000000000
010000569003849004MUSSARELA BIMBO KG FAT                            0000000000000000110000000000000000000000000000000000000000000000000000000000000000
010000570003499003MUSSARELA BIMBO KG PEDACO                         0000000000000000110000000000000000000000000000000000000000000000000000000000000000
010000571000998000LARANJA BAHIA KG IMPORTAD                         0000000000000000010000000000000000000000000000000000000000000000000000000000000000
010000573001099015 SUAN CURADO KG                                   0000000000000000110000000000000000000000000000000000000000000000000000000000000000
010000574004199000CARNE BOV EMB KG MAMINHA                          0000000000000000010000000000000000000000000000000000000000000000000000000000000000
010000575003499000CARNE BOV EMB KG COSTELA                          0000000000000000010000000000000000000000000000000000000000000000000000000000000000
011000581000999005PIZZA TOP UN SABORES                              0000000000000000110000000000000000000000000000000000000000000000000000000000000000
010000621002999006TORTA TOP KG EXPRESSA                             0000000000000000110000000000000000000000000000000000000000000000000000000000000000
010000622002999005TORTA TOP KG PAO                                  0000000000000000110000000000000000000000000000000000000000000000000000000000000000
011000623000600000SALGADO ASSADO TOP UN                             0000000000000000010000000000000000000000000000000000000000000000000000000000000000
011000627000490000PAO C/MANTEIGA TOP UN                             0000000000000000010000000000000000000000000000000000000000000000000000000000000000
011000628001790003PAO C/LINGUICA TOP UN                             0000000000000000110000000000000000000000000000000000000000000000000000000000000000
011000629000500000MISTO TOP UN                                      0000000000000000010000000000000000000000000000000000000000000000000000000000000000
010000641000249000GELO VILA KG                                      0000000000000000010000000000000000000000000000000000000000000000000000000000000000
010000696002199003MORTADELA AURORA DEFUMADA                         0000000000000000110000000000000000000000000000000000000000000000000000000000000000
010000697006589000QUEIJO COALHO CRIOULO KG                          0000000000000000010000000000000000000000000000000000000000000000000000000000000000
010000698006899000QJ COALHO CRIOULO KG TEMP                         0000000000000000010000000000000000000000000000000000000000000000000000000000000000
010000699004599003QJ CHEDDAR POLENGHI KG                            0000000000000000110000000000000000000000000000000000000000000000000000000000000000
010000700006299000QJ GORGONZOLA CRIOULO KG                          0000000000000000010000000000000000000000000000000000000000000000000000000000000000
010000701002399000RICOTA VENDA NOVA KG                              0000000000000000010000000000000000000000000000000000000000000000000000000000000000
010000703005195000QUEIJO MINAS FRESCAL VEND                         0000000000000000010000000000000000000000000000000000000000000000000000000000000000
010000705005999000QJ MINAS PADRAO VENDA NOV                         0000000000000000010000000000000000000000000000000000000000000000000000000000000000
010000708005298000QJ MINAS PADRAO DAVACA KG                         0000000000000000010000000000000000000000000000000000000000000000000000000000000000
010000709004999000QJMINAS PADRAO SENSACAO M                         0000000000000000010000000000000000000000000000000000000000000000000000000000000000
010000710004398000REQUEIJAO SENSACAO MINAS                          0000000000000000010000000000000000000000000000000000000000000000000000000000000000
010000711005999000QUEIJO REINO SELITA KG                            0000000000000000010000000000000000000000000000000000000000000000000000000000000000
010000712004899000REQUEIJAO SELITA KG                               0000000000000000010000000000000000000000000000000000000000000000000000000000000000
010000713004999000QJ PRATO LANCHE SELITA KG                         0000000000000000010000000000000000000000000000000000000000000000000000000000000000
010000714003199003QJ MINAS FR SELITA PECA K                         0000000000000000110000000000000000000000000000000000000000000000000000000000000000
010000715004999000QJ MINAS PADRAO SELITA ZE                         0000000000000000010000000000000000000000000000000000000000000000000000000000000000
010000717001549003PATINHO SUINA KG                                  0000000000000000110000000000000000000000000000000000000000000000000000000000000000
010000719002799015PE SUINO KG DEFUMADO                              0000000000000000110000000000000000000000000000000000000000000000000000000000000000
010000720004499000SOBREPALETA SUINA RECH KG                         0000000000000000010000000000000000000000000000000000000000000000000000000000000000
010000721001299000MORTADELA PEPERI KG PECA                          0000000000000000010000000000000000000000000000000000000000000000000000000000000000
010000722002799003LOMBO TEMPERADO KG                                0000000000000000110000000000000000000000000000000000000000000000000000000000000000
010000724001999007BOLO TOP MARACUJA KG                              0000000000000000110000000000000000000000000000000000000000000000000000000000000000
010000725000949000COXA FRANGO KG                                    0000000000000000010000000000000000000000000000000000000000000000000000000000000000
010000726007299030SALIMINHO NOBREZA KG                              0000000000000000110000000000000000000000000000000000000000000000000000000000000000
010000728004489000REQUEIJAO ALFREDENSE KG                           0000000000000000010000000000000000000000000000000000000000000000000000000000000000
010000729003499000QJ MINAS FRESCAL ALFREDEN                         0000000000000000010000000000000000000000000000000000000000000000000000000000000000
010000730001999003MORTADELA AURORA KG                               0000000000000000110000000000000000000000000000000000000000000000000000000000000000
010000732001599006PAO TOP SOVADO KG                                 0000000000000000110000000000000000000000000000000000000000000000000000000000000000
010000734000099000TENDER AURORA KG                                  0000000000000000010000000000000000000000000000000000000000000000000000000000000000
010000735000999003MORTADELA AURORA KG TRAD                          0000000000000000110000000000000000000000000000000000000000000000000000000000000000
010000736000449003ABACAXI KG                                        0000000000000000110000000000000000000000000000000000000000000000000000000000000000
011000738000599000PAO TOP DORMIDO C 10 UN                           0000000000000000010000000000000000000000000000000000000000000000000000000000000000
010000740001699007BISNAGUINHA TOP KG                                0000000000000000110000000000000000000000000000000000000000000000000000000000000000
010000744001699007BOLO TOP KG CACAROLA                              0000000000000000110000000000000000000000000000000000000000000000000000000000000000
010000745001999000BOLO TOP KG MESCLADO                              0000000000000000010000000000000000000000000000000000000000000000000000000000000000
010000746003499003CARNE BOV KG MIOLO DA PA                          0000000000000000110000000000000000000000000000000000000000000000000000000000000000
010000747003999005LAGARTO RECHEADO KG                               0000000000000000110000000000000000000000000000000000000000000000000000000000000000
010000748003399003BIFE A ROLE KG                                    0000000000000000110000000000000000000000000000000000000000000000000000000000000000
010000750002999005MEIO ASA TEMPERADA KG                             0000000000000000110000000000000000000000000000000000000000000000000000000000000000
010000754001998003LINGUICA FRANGO AURORA KG                         0000000000000000110000000000000000000000000000000000000000000000000000000000000000
010000755002199003LINGUICA PERNIL AURORA KG                         0000000000000000110000000000000000000000000000000000000000000000000000000000000000
010000758001699015SALSICHAO COFRIL RIO KG                           0000000000000000110000000000000000000000000000000000000000000000000000000000000000
010000759001599007BOLO TOP MILHO CREMOSO KG                         0000000000000000110000000000000000000000000000000000000000000000000000000000000000
010000760001699007BOLO TOP LARANJA KG                               0000000000000000110000000000000000000000000000000000000000000000000000000000000000
010000761001699006BAGUETE TOP TRAD KG                               0000000000000000110000000000000000000000000000000000000000000000000000000000000000
010000763002499015BROA TOP CAXAMBU KG                               0000000000000000110000000000000000000000000000000000000000000000000000000000000000
011000769003999000BEIJINHO TOP 100UN                                0000000000000000010000000000000000000000000000000000000000000000000000000000000000
010000770002499006TORTA TOP MOUSSE KG                               0000000000000000110000000000000000000000000000000000000000000000000000000000000000
010000771002499030ROSCA TOP LEITE KG                                0000000000000000110000000000000000000000000000000000000000000000000000000000000000
010000772002499000ROSCA TOP AMANTEIGADA KG                          0000000000000000010000000000000000000000000000000000000000000000000000000000000000
010000773001799006PAO FORMA TOP INTEGRAL KG                         0000000000000000110000000000000000000000000000000000000000000000000000000000000000
010000775001799000LINGUICA MISTA COFRIL KG                          0000000000000000010000000000000000000000000000000000000000000000000000000000000000
010000777003990007MOUSSE TOP KG                                     0000000000000000110000000000000000000000000000000000000000000000000000000000000000
010000778001899006MIRONGA TOP KG                                    0000000000000000110000000000000000000000000000000000000000000000000000000000000000
010000779006499003CARNE DE SOL DACASA KG                            0000000000000000110000000000000000000000000000000000000000000000000000000000000000
010000780001899000PAO PETROPOLIS TOP KG                             0000000000000000010000000000000000000000000000000000000000000000000000000000000000
010000781009889000SALAME IT PERDIGAO KG                             0000000000000000010000000000000000000000000000000000000000000000000000000000000000
010000782002549005ASA PERU INT PERDIGAO KG                          0000000000000000110000000000000000000000000000000000000000000000000000000000000000
010000784000949003MORT AURORA KG S TOUCINHO                         0000000000000000110000000000000000000000000000000000000000000000000000000000000000
010000785001699007BOLO TOP INDIANO KG                               0000000000000000110000000000000000000000000000000000000000000000000000000000000000
010000788001999007BOLO TOP FUBA KG                                  0000000000000000110000000000000000000000000000000000000000000000000000000000000000
010000795001699007PAO TOP MILHO KG                                  0000000000000000110000000000000000000000000000000000000000000000000000000000000000
010000796001899005PAO TOP COCO KG                                   0000000000000000110000000000000000000000000000000000000000000000000000000000000000
010000800003849003MUSSARELA PARLAK FAT KG                           0000000000000000110000000000000000000000000000000000000000000000000000000000000000
010000801003499003MUSSARELA PARLAK PEDACO K                         0000000000000000110000000000000000000000000000000000000000000000000000000000000000
010000802002049000FILE PEITO FRANGO KG UNIA                         0000000000000000010000000000000000000000000000000000000000000000000000000000000000
011000803000499007BOLO TOP UN GELADO                                0000000000000000110000000000000000000000000000000000000000000000000000000000000000
010000804001199003MORT PERDIGAO KG MISTA                            0000000000000000110000000000000000000000000000000000000000000000000000000000000000
010000805002499015MORTADELA SADIA KG                                0000000000000000110000000000000000000000000000000000000000000000000000000000000000
010000806003698003PEITO FR PERDIGAO KG DEF                          0000000000000000110000000000000000000000000000000000000000000000000000000000000000
011000813000549007TORTELETE TOP UN                                  0000000000000000110000000000000000000000000000000000000000000000000000000000000000
010000814002299007BOLO TOP KG CENOU PALHA                           0000000000000000110000000000000000000000000000000000000000000000000000000000000000
010000815002399007BOLO TOP KG CAFE                                  0000000000000000110000000000000000000000000000000000000000000000000000000000000000
010000816002699007BOLO TOP KG CHOC NOZES                            0000000000000000110000000000000000000000000000000000000000000000000000000000000000
010000818000998005FRANGO RESFRIADO KG OI                            0000000000000000110000000000000000000000000000000000000000000000000000000000000000
010000819002590020COCADA TOP KG                                     0000000000000000110000000000000000000000000000000000000000000000000000000000000000
010000820001699000RICOTA SELITA KG                                  0000000000000000010000000000000000000000000000000000000000000000000000000000000000
010000821000399000MELAO REDINHA KG                                  0000000000000000010000000000000000000000000000000000000000000000000000000000000000
011000822002299006GELATINA TOP MOSAICO UN                           0000000000000000110000000000000000000000000000000000000000000000000000000000000000
010000823001899003RABO SUINO KG                                     0000000000000000110000000000000000000000000000000000000000000000000000000000000000
010000826002990006ROCAMBOLE TOP CONF KG                             0000000000000000110000000000000000000000000000000000000000000000000000000000000000
010000827004799003EMBUTIDO PEITO PERU KG DE                         0000000000000000110000000000000000000000000000000000000000000000000000000000000000
010000828002299007BOLO TOP BROWNIE KG                               0000000000000000110000000000000000000000000000000000000000000000000000000000000000
010000829002499003BARRIGUINHA TEMP KG CS                            0000000000000000110000000000000000000000000000000000000000000000000000000000000000
010000830005169003PEITO PERU SEARA KG DEF F                         0000000000000000110000000000000000000000000000000000000000000000000000000000000000
010000833003499006CUPCAKE TOP KG                                    0000000000000000110000000000000000000000000000000000000000000000000000000000000000
010000835001699007PAO TOP ERVA KG                                   0000000000000000110000000000000000000000000000000000000000000000000000000000000000
010000836005499003QUEIJO MUS SELITA KG PED                          0000000000000000110000000000000000000000000000000000000000000000000000000000000000
010000837005499003QUEIJO MUS SELITA KG FAT                          0000000000000000110000000000000000000000000000000000000000000000000000000000000000
010000839002999000LINGU CAS KG CAIP                                 0000000000000000010000000000000000000000000000000000000000000000000000000000000000
010000842003499003CARNE BOV FRESCA KG PAULI                         0000000000000000110000000000000000000000000000000000000000000000000000000000000000
010000846002499000DIANTEIRO CB KG                                   0000000000000000010000000000000000000000000000000000000000000000000000000000000000
010000847001399003FRANGO A PASSARINHO KG TE                         0000000000000000110000000000000000000000000000000000000000000000000000000000000000
010000848003899000COPA LOMBO DEF KG CS                              0000000000000000010000000000000000000000000000000000000000000000000000000000000000
010000849003949003QUEIJO MUS DAMARE KG PED                          0000000000000000110000000000000000000000000000000000000000000000000000000000000000
010000850004344003QUEIJO MUS DAMARE KG FAT                          0000000000000000110000000000000000000000000000000000000000000000000000000000000000
010000852001849000LING FRG PERDIGAO KG NABR                         0000000000000000010000000000000000000000000000000000000000000000000000000000000000
010000853003599000BARRIGA TEMP NABRASA KG                           0000000000000000010000000000000000000000000000000000000000000000000000000000000000
010000854000429000BATATA DOCE KG BRANCA                             0000000000000000010000000000000000000000000000000000000000000000000000000000000000
010000855004599015CHARQUE DIANTEIRO KG                              0000000000000000110000000000000000000000000000000000000000000000000000000000000000
010000856000399000MEXERICA POKAN KG                                 0000000000000000010000000000000000000000000000000000000000000000000000000000000000
010000858003999000SALGADINHO TOP KG FRITO                           0000000000000000010000000000000000000000000000000000000000000000000000000000000000
010000859003999015BRIGADEIRO TOP KG                                 0000000000000000110000000000000000000000000000000000000000000000000000000000000000
010000860003999015BEIJINHO TOP KG                                   0000000000000000110000000000000000000000000000000000000000000000000000000000000000
010000861004599030BACALHAU SAITHE 10 12 KG                          0000000000000000110000000000000000000000000000000000000000000000000000000000000000
010000862004499021CORVINA SAL KG                                    0000000000000000110000000000000000000000000000000000000000000000000000000000000000
010000863002499006PAO TOP LEITE COND KG                             0000000000000000110000000000000000000000000000000000000000000000000000000000000000
011000865000549006PAO TOP CASEIRO UN                                0000000000000000110000000000000000000000000000000000000000000000000000000000000000
010000866001699006PAO TOP PARMESAO KG                               0000000000000000110000000000000000000000000000000000000000000000000000000000000000
010000867006799060BACALHAU SAITHE 7 9 KG                            0000000000000000110000000000000000000000000000000000000000000000000000000000000000
010000868002499003PERNIL S OSSO KG BF                               0000000000000000110000000000000000000000000000000000000000000000000000000000000000
010000869004799000MIOLO ALCATRA EMB KG                              0000000000000000010000000000000000000000000000000000000000000000000000000000000000
010000870003599000PEITO SEL EMB KG                                  0000000000000000010000000000000000000000000000000000000000000000000000000000000000
010000873001589010MORT SEARA KG TRAD                                0000000000000000110000000000000000000000000000000000000000000000000000000000000000
010000874001899007LING MISTA PERDIGAO KG                            0000000000000000110000000000000000000000000000000000000000000000000000000000000000
010000875004499015BACON MANTA FAT KG                                0000000000000000110000000000000000000000000000000000000000000000000000000000000000
010000876003499000QJ CHEDDAR SELITA KG                              0000000000000000010000000000000000000000000000000000000000000000000000000000000000
010000882002499015BREVIDADE TOP KG                                  0000000000000000110000000000000000000000000000000000000000000000000000000000000000
